:020000040800F2
:100000000028002041140008D1130008D71300086D
:10001000DD130008E3130008E913000800000000E6
:10002000000000000000000000000000EF130008C6
:10003000FB13000800000000071400081314000858
:10004000891400088914000889140008891400081C
:10005000891400088914000889140008891400080C
:1000600089140008891400088914000889140008FC
:1000700089140008891400088914000889140008EC
:1000800089140008891400088914000889140008DC
:1000900089140008891400088914000889140008CC
:1000A00089140008891400088914000889140008BC
:1000B00021140008891400080000000089140008B9
:1000C00089140008000000000000000089140008E6
:1000D00000000000891400088914000800000000D6
:1000E0008914000889140008891400080000000021
:1000F0000000000000000000000000000000000000
:0C01000000000000000000005FF808F1A3
:10010C0010B5054C237833B9044B13B10448AFF345
:10011C0000800123237010BD44000020000000006B
:10012C00E02A000808B5034B1BB103490348AFF3A1
:10013C00008008BD0000000048000020E02A0008F4
:10014C0080B400AF064B1B68012B04D1044B00227A
:10015C001A60012300E000231846BD4680BC70479E
:10016C006400002080B400AF064B1B68012B04D147
:10017C00044B00221A60012300E000231846BD4600
:10018C0080BC70476000002080B400AF064B1B6839
:10019C00012B04D1044B00221A60012300E0002340
:1001AC001846BD4680BC70476800002080B400AF84
:1001BC00054B1B68012B01D1012300E000231846DD
:1001CC00BD4680BC704700BF6C00002080B400AFFF
:1001DC00054B1B68012B01D1012300E000231846BD
:1001EC00BD4680BC704700BF7000002080B500AFDA
:1001FC00174B1B68174A1360174B1B68144A136084
:10020C004021164801F026FC03461A46124B1A6090
:10021C00104B1A680E4B1B689A4216D10C4B1A687D
:10022C000D4B1B689A4210D10D4B1A680A4B1B6878
:10023C009A420AD0084B1B68094A1360064B1B688C
:10024C00002B02D1074B01221A6000BF80BD00BFFA
:10025C0014000020100000201800002000080140AD
:10026C001C0000206400002080B500AF2B4B1B68E5
:10027C002B4A13602B4B1B68284A136080212A4899
:10028C0001F0E8FB03461A46264B1A60244B1A6809
:10029C00224B1B689A423FD1204B1A68214B1B689A
:1002AC009A4239D1214B1A681E4B1B689A421BD0BB
:1002BC001C4B1B681D4A13601A4B1B68002B04D186
:1002CC001B4B4FF496721A6026E01A4B1B68012BDD
:1002DC0003D1194B00221A6002E0174B01221A605D
:1002EC00144B00221A6017E0114B1B68002B13DD16
:1002FC000F4B1B68013B0E4A13600D4B1B68002B08
:10030C000ADC084B1B68002B02D10A4B01221A6035
:10031C00074B4FF496721A6000BF80BD040000209A
:10032C000000002008000020000801400C00002004
:10033C00300000206C0000206000002080B500AF71
:10034C002C4B1B682C4A13602C4B1B68294A1360DE
:10035C004FF480712A4801F07DFB03461A46274B67
:10036C001A60254B1A68234B1B689A423FD1214BCC
:10037C001A68224B1B689A4239D1224B1A681F4BC0
:10038C001B689A421BD01D4B1B681E4A13601B4BEB
:10039C001B68002B04D11C4B4FF496721A6026E09C
:1003AC001A4B1B68012B03D1194B00221A6002E077
:1003BC00174B01221A60154B00221A6017E0124BE2
:1003CC001B68002B13DD104B1B68013B0E4A13609E
:1003DC000D4B1B68002B0ADC084B1B68002B02D151
:1003EC000A4B01221A60084B4FF496721A6000BF38
:1003FC0080BD00BF24000020200000202800002029
:10040C00000801402C000020340000207000002067
:10041C006800002080B500AFA04B1B680A2B00F2CF
:10042C00E88301A252F823F07F040008230500089A
:10043C00E5050008B506000877070008390800082C
:10044C00FB080008C90900088B0A0008490B0008C2
:10045C0061040008002000F0E9FB904B00221A60B8
:10046C004FF47A7000F0C2FE42F2107000F0DAFE27
:10047C00D4E3002000F0DAFBFFF762FE0346012B09
:10048C0006D1864B0A221A6042F2107000F0CAFEA6
:10049C00FFF77AFE0346012B06D1804B09221A6026
:1004AC0042F2107000F0BEFEFFF75CFE0346012B1B
:1004BC0006D17A4B01221A6042F2107000F0B2FEA3
:1004CC00774B1B68012B0FD1FFF770FE0346012BF6
:1004DC000AD1724B01221A604FF47A7000F086FE3A
:1004EC0042F2107000F09EFE6D4B1B68012B40F029
:1004FC008283FFF76BFE0346012B40F07C83674B36
:10050C0009221A604FF47A7000F070FE42F21070FB
:10051C0000F088FE6FE3012000F088FBFFF710FE6F
:10052C000346012B06D15D4B0A221A6042F2107071
:10053C0000F078FEFFF728FE0346012B06D1574B3F
:10054C0000221A6042F2107000F06CFEFFF70AFEF7
:10055C000346012B06D1514B02221A6042F2107055
:10056C0000F060FE4E4B1B68012B0FD1FFF71EFEF7
:10057C000346012B0AD1494B02221A604FF47A70C0
:10058C0000F034FE42F2107000F04CFE444B1B683D
:10059C00012B0FD1FFF71AFE0346012B0AD13F4B5B
:1005AC0000221A604FF47A7000F020FE42F21070B4
:1005BC0000F038FE3B4B1B68012B40F01E83384B80
:1005CC001B68012B40F01983344B00221A604FF446
:1005DC007A7000F00BFE10E3022000F027FBFFF70F
:1005EC00AFFD0346012B06D12C4B0A221A6042F2B6
:1005FC00107000F017FEFFF7C7FD0346012B06D164
:10060C00264B01221A6042F2107000F00BFEFFF72D
:10061C00A9FD0346012B06D1204B03221A6042F29E
:10062C00107000F0FFFD1E4B1B68012B0FD1FFF764
:10063C00BDFD0346012B0AD1184B03221A604FF45F
:10064C007A7000F0D3FD42F2107000F0EBFD144B09
:10065C001B68012B0FD1FFF7B9FD0346012B0AD103
:10066C000E4B01221A604FF47A7000F0BFFD42F27B
:10067C00107000F0D7FD0B4B1B68012B40F0BF82B4
:10068C00074B1B68012B40F0BA82044B01221A6005
:10069C004FF47A7000F0AAFDB1E200BF74000020A4
:1006AC007C00002084000020032000F0BFFAFFF73C
:1006BC0047FD0346012B06D1BD4B0A221A6042F2BC
:1006CC00107000F0AFFDFFF75FFD0346012B06D164
:1006DC00B74B02221A6042F2107000F0A3FDFFF734
:1006EC0041FD0346012B06D1B14B04221A6042F2A4
:1006FC00107000F097FDAF4B1B68012B0FD1FFF76B
:10070C0055FD0346012B0AD1A94B04221A604FF464
:10071C007A7000F06BFD42F2107000F083FDA54B77
:10072C001B68012B0FD1FFF751FD0346012B0AD19A
:10073C009F4B02221A604FF47A7000F057FD42F280
:10074C00107000F06FFD9C4B1B68012B40F0598220
:10075C00984B1B68012B40F05482954B02221A6077
:10076C004FF47A7000F042FD4BE2042000F05EFA88
:10077C00FFF7E6FC0346012B06D18D4B0A221A60CB
:10078C0042F2107000F04EFDFFF7FEFC0346012B09
:10079C0006D1874B03221A6042F2107000F042FD22
:1007AC00FFF7E0FC0346012B06D1814B05221A60B2
:1007BC0042F2107000F036FD7E4B1B68012B0FD1FE
:1007CC00FFF7F4FC0346012B0AD1794B05221A6082
:1007DC004FF47A7000F00AFD42F2107000F022FD26
:1007EC00744B1B68012B0FD1FFF7F0FC0346012B58
:1007FC000AD16F4B03221A604FF47A7000F0F6FCAA
:10080C0042F2107000F00EFD6B4B1B68012B40F098
:10081C00FA81684B1B68012B40F0F581644B032275
:10082C001A604FF47A7000F0E1FCECE1052000F066
:10083C00FDF9FFF785FC0346012B06D15C4B0A2220
:10084C001A6042F2107000F0EDFCFFF79DFC0346BD
:10085C00012B06D1564B04221A6042F2107000F0A4
:10086C00E1FCFFF77FFC0346012B06D1504B06221F
:10087C001A6042F2107000F0D5FC4E4B1B68012B35
:10088C000FD1FFF793FC0346012B0AD1484B0622EC
:10089C001A604FF47A7000F0A9FC42F2107000F06C
:1008AC00C1FC444B1B68012B0FD1FFF78FFC034697
:1008BC00012B0AD13E4B04221A604FF47A7000F0DF
:1008CC0095FC42F2107000F0ADFC3B4B1B68012B09
:1008DC0040F09B81374B1B68012B40F09681344BC9
:1008EC0004221A604FF47A7000F080FC8DE106202F
:1008FC0000F09CF9FFF724FC0346012B06D12C4B8E
:10090C000A221A6042F2107000F08CFCFFF73CFCDB
:10091C000346012B06D1264B05221A6042F21070B9
:10092C0000F080FCFFF71EFC0346012B06D1204B88
:10093C0007221A6042F2107000F074FC1D4B1B6809
:10094C00012B0FD1FFF732FC0346012B0AD1184BB8
:10095C0007221A604FF47A7000F048FC42F21070D3
:10096C0000F060FC134B1B68012B0FD1FFF72EFC22
:10097C000346012B0AD10E4B05221A604FF47A70F4
:10098C0000F034FC42F2107000F04CFC0A4B1B6877
:10099C00012B40F03C81074B1B68012B40F0378149
:1009AC00034B05221A604FF47A7000F01FFC2EE105
:1009BC00740000207C00002084000020072000F040
:1009CC0035F9FFF7BDFB0346012B06D1944B0A22E8
:1009DC001A6042F2107000F025FCFFF7D5FB0346BD
:1009EC00012B06D18E4B06221A6042F2107000F0D9
:1009FC0019FCFFF7B7FB0346012B06D1884B0822E5
:100A0C001A6042F2107000F00DFC864B1B68012B33
:100A1C000FD1FFF7CBFB0346012B0AD1804B0822E9
:100A2C001A604FF47A7000F0E1FB42F2107000F0A3
:100A3C00F9FB7C4B1B68012B0FD1FFF7C7FB03465F
:100A4C00012B0AD1764B06221A604FF47A7000F013
:100A5C00CDFB42F2107000F0E5FB734B1B68012BD1
:100A6C0040F0D7806F4B1B68012B40F0D2806C4B51
:100A7C0006221A604FF47A7000F0B8FBC9E0082027
:100A8C0000F0D4F8FFF75CFB0346012B06D1644B56
:100A9C000A221A6042F2107000F0C4FBFFF774FBDC
:100AAC000346012B06D15E4B07221A6042F21070EE
:100ABC0000F0B8FBFFF756FB0346012B06D1584B51
:100ACC0009221A6042F2107000F0ACFB554B1B6807
:100ADC00012B0FD1FFF76AFB0346012B0AD1504BB8
:100AEC0009221A604FF47A7000F080FB42F2107009
:100AFC0000F098FB4B4B1B68012B0FD1FFF766FBEB
:100B0C000346012B0AD1464B07221A604FF47A7028
:100B1C0000F06CFB42F2107000F084FB424B1B683F
:100B2C00012B78D13F4B1B68012B74D13C4B072216
:100B3C001A604FF47A7000F059FB6CE0092000F059
:100B4C0075F8FFF7FDFA0346012B06D1344B0A2248
:100B5C001A6042F2107000F065FBFFF715FB0346BC
:100B6C00012B06D12E4B08221A6042F2107000F0B5
:100B7C0059FBFFF7F7FA0346012B06D1284B00224D
:100B8C001A6042F2107000F04DFB264B1B68012BD3
:100B9C000FD1FFF70BFB0346012B0AD1204B002290
:100BAC001A604FF47A7000F021FB42F2107000F0E2
:100BBC0039FB1C4B1B68012B0FD1FFF707FB0346BE
:100BCC00012B0AD1164B08221A604FF47A7000F0F0
:100BDC000DFB42F2107000F025FB134B1B68012B30
:100BEC001BD10F4B08221A604FF47A7000F0FEFAFA
:100BFC0013E000BF12E000BF10E000BF0EE000BF2A
:100C0C000CE000BF0AE000BF08E000BF06E000BF38
:100C1C0004E000BF02E000BF00E000BF00BF80BDE9
:100C2C00740000207C0000208400002080B582B07D
:100C3C0000AF78607B68002B23D100220121C048D3
:100C4C0000F01FFF00220221BD4800F01AFF002215
:100C5C000421BB4800F015FF00220821B84800F021
:100C6C0010FF00221021B64800F00BFF00222021BB
:100C7C00B34800F006FF01224021B14800F001FF0B
:100C8C0083E17B68012B23D101220121AC4800F0C8
:100C9C00F8FE00220221AA4800F0F3FE00220421F3
:100CAC00A74800F0EEFE01220821A54800F0E9FE5D
:100CBC0001221021A24800F0E4FE01222021A048CC
:100CCC0000F0DFFE012240219D4800F0DAFE5CE1DD
:100CDC007B68022B23D100220121994800F0D1FE20
:100CEC0000220221964800F0CCFE012204219448F7
:100CFC0000F0C7FE00220821914800F0C2FE00223D
:100D0C0010218F4800F0BDFE012220218C4800F0FC
:100D1C00B8FE002240218A4800F0B3FE35E17B6822
:100D2C00032B23D100220121854800F0AAFE0022CA
:100D3C000221834800F0A5FE00220421804800F027
:100D4C00A0FE002208217E4800F09BFE012210210B
:100D5C007B4800F096FE01222021794800F091FE9C
:100D6C0000224021764800F08CFE0EE17B68042BBB
:100D7C0023D101220121724800F083FE00220221BE
:100D8C006F4800F07EFE002204216D4800F079FED1
:100D9C00012208216A4800F074FE012210216848E3
:100DAC0000F06FFE00222021654800F06AFE002250
:100DBC004021634800F065FEE7E07B68052B23D1FA
:100DCC00002201215E4800F05CFE012202215C48F9
:100DDC0000F057FE00220421594800F052FE002278
:100DEC000821574800F04DFE01221021544800F014
:100DFC0048FE00222021524800F043FE00224021F0
:100E0C004F4800F03EFEC0E07B68062B23D1002249
:100E1C0001214B4800F035FE01220221484800F028
:100E2C0030FE00220421464800F02BFE002208214F
:100E3C00434800F026FE00221021414800F021FE1C
:100E4C00002220213E4800F01CFE002240213C489C
:100E5C0000F017FE99E07B68072B23D100220121BB
:100E6C00374800F00EFE00220221354800F009FE42
:100E7C0000220421324800F004FE012208213048EF
:100E8C0000F0FFFD012210212D4800F0FAFD012297
:100E9C0020212B4800F0F5FD01224021284800F0CC
:100EAC00F0FD72E07B68082B23D10022012124483D
:100EBC0000F0E7FD00220221214800F0E2FD0022B3
:100ECC0004211F4800F0DDFD002208211C4800F021
:100EDC00D8FD002210211A4800F0D3FD0022202159
:100EEC00174800F0CEFD00224021154800F0C9FD46
:100EFC004BE07B68092B25D100220121104800F022
:100F0C00C0FD002202210E4800F0BBFD002204218E
:100F1C000B4800F0B6FD00220821094800F0B1FD95
:100F2C0001221021064800F0ACFD002220210448CB
:100F3C0000F0A7FD00224021014800F0A2FD24E0B2
:100F4C00000C014001220121124800F09AFD0122FF
:100F5C000221104800F095FD012204210D4800F0FB
:100F6C0090FD012208210B4800F08BFD012210217D
:100F7C00084800F086FD01222021064800F081FD82
:100F8C0001224021034800F07CFD00BF0837BD461C
:100F9C0080BD00BF000C014080B500AF00F070FABE
:100FAC0000F026F800F0ACF800F05EF80C4801F008
:100FBC00D1F90C4B0A221A604FF4FA7000F04EF97A
:100FCC00094B1B68012B07D12021084800F071FD4B
:100FDC004FF4FA7000F042F9FFF71CFAF0E700BF8B
:100FEC0090000020740000208C00002000080140BC
:100FFC0080B590B000AF07F11803282200211846E5
:10100C0001F060FD3B1D00221A605A609A60DA60A4
:10101C001A610223BB610123BB621023FB62002314
:10102C007B6307F11803184600F05CFD0346002BA8
:10103C0001D000F0D5F80F237B600023BB600023A8
:10104C00FB6000233B6100237B613B1D00211846A4
:10105C0000F0C8FF0346002B01D000F0C1F800BF20
:10106C004037BD4680BD000080B586B000AF07F1AB
:10107C00080300221A605A609A60DA603B4600222C
:10108C001A605A601D4B4FF080421A601B4B41F6A0
:10109C003F725A60194B00229A60184B0922DA6091
:1010AC00164B00221A61154B00229A61134801F06D
:1010BC0001F90346002B01D000F092F84FF4805355
:1010CC00BB6007F1080319460C4801F097FA034678
:1010DC00002B01D000F084F800233B6000237B60E0
:1010EC003B461946054801F05FFC0346002B01D036
:1010FC0000F076F800BF1837BD4680BD9000002088
:10110C0080B586B000AF07F1080300221A605A6060
:10111C009A60DA60274B9B69264A43F0040393617B
:10112C00244B9B6903F004037B607B68214B9B6918
:10113C00204A43F0080393611E4B9B6903F008039C
:10114C003B603B68002220211B4800F09AFC0022E7
:10115C007F211A4800F095FC2023BB600123FB6023
:10116C0000233B6102237B6107F1080319461248F7
:10117C0000F0F6FA4FF4E073BB600023FB60012330
:10118C003B6107F1080319460B4800F0E9FA7F238D
:10119C00BB600123FB6000233B6102237B6107F1F1
:1011AC0008031946054800F0DBFA00BF1837BD46A6
:1011BC0080BD00BF0010024000080140000C01403F
:1011CC0080B582B000AF786000F064F8FFF74CF89F
:1011DC00FFF7B4F8FFF70AF800BF0837BD4680BD2B
:1011EC0080B400AF72B600BFFEE7000080B483B0DD
:1011FC0000AF78607B68084A82FB03129210DB1701
:10120C00D31A064A1360064B00221A6000BF0C3733
:10121C00BD4680BC704700BF6766666678000020DC
:10122C007C00002080B483B000AF78607B68084AF3
:10123C0082FB03129210DB17D31A064A1360064B7B
:10124C0000221A6000BF0C37BD4680BC704700BF3F
:10125C0067666666800000208400002080B483B03E
:10126C0000AF78607B68084A82FB03129210DB1790
:10127C00D31A064A1360064B00221A6000BF0C37C3
:10128C00BD4680BC704700BF67666666880000205C
:10129C008C00002080B400AF194B1B68002B0BDDB9
:1012AC00174B1B68013B164A1360154B1B68002B30
:1012BC0002DC144B01221A60134B1B68002B0BDD54
:1012CC00114B1B68013B104A13600F4B1B68002B22
:1012DC0002DC0E4B01221A600D4B1B68002B0BDD40
:1012EC000B4B1B68013B0A4A1360094B1B68002B14
:1012FC0002DC084B01221A6000BFBD4680BC70475F
:10130C00780000207C000020800000208400002059
:10131C00880000208C00002080B485B000AF154BF5
:10132C009B69144A43F001039361124B9B6903F0D0
:10133C000103BB60BB680F4BDB690E4A43F0805363
:10134C00D3610C4BDB6903F080537B607B680A4BE9
:10135C005B68FB60FB6823F0E063FB60FB6843F0B9
:10136C008063FB60044AFB68536000BF1437BD46C2
:10137C0080BC7047001002400000014080B584B072
:10138C0000AF78607B681B68B3F1804F13D10C4BB6
:10139C00DB690B4A43F00103D361094BDB6903F0B2
:1013AC000103FB60FB68002200211C2000F0A1F966
:1013BC001C2000F0BAF900BF1037BD4680BD00BF3D
:1013CC000010024080B400AFFEE780B400AFFEE72F
:1013DC0080B400AFFEE780B400AFFEE780B400AF8E
:1013EC00FEE780B400AF00BFBD4680BC704780B440
:1013FC0000AF00BFBD4680BC704780B400AF00BFDB
:10140C00BD4680BC704780B500AF00F07FF800BFD0
:10141C0080BD000080B500AF024800F0E7FF00BFC0
:10142C0080BD00BF9000002080B400AF00BFBD465F
:10143C0080BC70470C480D490D4A002302E0D4587B
:10144C00C4500433C4188C42F9D30A4A0A4C002302
:10145C0001E013600432A242FBD3FFF7E5FF01F079
:10146C000DFBFFF799FD70470000002044000020A1
:10147C00202B000844000020DC000020FEE70000C8
:10148C0080B500AF084B1B68074A43F0100313608C
:10149C00032000F023F90F2000F008F8FFF73CFFC1
:1014AC000023184680BD00BF0020024080B582B0EA
:1014BC0000AF7860124B1A68124B1B7819464FF428
:1014CC007A73B3FBF1F3B2FBF3F3184600F03BF97C
:1014DC000346002B01D001230EE07B680F2B0AD8AA
:1014EC00002279684FF0FF3000F003F9064A7B6860
:1014FC001360002300E0012318460837BD4680BD69
:10150C0038000020400000203C00002080B400AFD8
:10151C00054B1B781A46054B1B681344034A136092
:10152C0000BFBD4680BC704740000020D8000020A2
:10153C0080B400AF024B1B681846BD4680BC704798
:10154C00D800002080B485B000AF78607B6803F0D1
:10155C000703FB600C4BDB68BB60BA684FF6FF03FC
:10156C001340BB60FB681A02BB68134343F0BF63B4
:10157C0043F40033BB60044ABB68D36000BF14372C
:10158C00BD4680BC704700BF00ED00E080B400AFEA
:10159C00044BDB681B0A03F007031846BD4680BCEE
:1015AC00704700BF00ED00E080B483B000AF03468D
:1015BC00FB7197F90730002B0BDBFB7903F01F0253
:1015CC00064997F907305B09012000FA02F241F84D
:1015DC00232000BF0C37BD4680BC704700E100E003
:1015EC0080B483B000AF03463960FB7197F90730C4
:1015FC00002B0ADB3B68DAB20C4997F90730120171
:10160C00D2B20B4483F800230AE03B68DAB20849F3
:10161C00FB7903F00F03043B1201D2B20B441A7690
:10162C0000BF0C37BD4680BC704700BF00E100E036
:10163C0000ED00E080B489B000AFF860B9607A606A
:10164C00FB6803F00703FB61FB69C3F10703042B81
:10165C0028BF0423BB61FB690433062B02D9FB6949
:10166C00033B00E000237B614FF0FF32BB6902FAC1
:10167C0003F3DA43BB681A407B699A404FF0FF31A1
:10168C007B6901FA03F3D9437B680B40134318467B
:10169C002437BD4680BC704780B582B000AF7860FF
:1016AC007B68013BB3F1807F01D301230FE00A4A31
:1016BC007B68013B53600F214FF0FF30FFF790FF29
:1016CC00054B00229A60044B07221A60002318462F
:1016DC000837BD4680BD00BF10E000E080B582B089
:1016EC0000AF78607868FFF72DFF00BF0837BD4664
:1016FC0080BD80B586B000AF0346B9607A60FB73DD
:10170C0000237B61FFF742FF78617A68B9687869DA
:10171C00FFF790FF024697F90F3011461846FFF776
:10172C005FFF00BF1837BD4680BD80B582B000AFEB
:10173C000346FB7197F907301846FFF735FF00BFDA
:10174C000837BD4680BD80B582B000AF7860786840
:10175C00FFF7A2FF034618460837BD4680BD0000C0
:10176C0080B48BB000AF7860396000237B620023BB
:10177C003B6248E101227B6A02FA03F3FB613B689E
:10178C001B68FA691340BB61BA69FB699A4240F065
:10179C0037813B685B68A34A93425ED0A14A93426F
:1017AC0075D8A14A934258D09F4A93426FD89F4A0A
:1017BC00934252D09D4A934269D89D4A93424CD051
:1017CC009B4A934263D89B4A934246D0994A934290
:1017DC005DD8122B2AD8122B59D801A252F823F01B
:1017EC0067180008411800085318000895180008DD
:1017FC009B1800089B1800089B1800089B180008F1
:10180C009B1800089B1800089B1800089B180008E0
:10181C009B1800089B1800089B1800089B180008D0
:10182C009B180008491800085D180008824A93426A
:10183C0013D02CE03B68DB683B6229E03B68DB683B
:10184C0004333B6224E03B68DB6808333B621FE0F7
:10185C003B68DB680C333B621AE03B689B68002BEF
:10186C0002D104233B6213E03B689B68012B05D13A
:10187C0008233B627B68FA691A6109E008233B6222
:10188C007B68FA695A6103E000233B6200E000BF09
:10189C00BB69FF2B01D87B6801E07B6804337B615B
:1018AC00BB69FF2B02D87B6A9B0002E07B6A083B7A
:1018BC009B003B617B691A680F213B6901FA03F3BA
:1018CC00DB431A40396A3B6901FA03F31A437B691B
:1018DC001A603B685B6803F08053002B00F090802B
:1018EC00564B9B69554A43F001039361534B9B69DB
:1018FC0003F00103BB60BB68514A7B6A9B0802334F
:10190C0052F82330FB607B6A03F003039B000F2229
:10191C0002FA03F3DB43FA681340FB607B68494A25
:10192C0093420DD07B68484A934207D07B68474A64
:10193C00934201D1022304E0032302E0012300E0DF
:10194C0000237A6A02F0030292009340FA68134370
:10195C00FB603B497B6A9B080233FA6841F8232001
:10196C003B685B6803F48033002B06D0384B1A6855
:10197C003749BB6913430B6006E0354B1A68BB69EA
:10198C00DB43334913400B603B685B6803F4003363
:10199C00002B06D02E4B5A682D49BB6913434B6064
:1019AC0006E02B4B5A68BB69DB43294913404B605B
:1019BC003B685B6803F48013002B06D0244B9A68B9
:1019CC002349BB6913438B6006E0214B9A68BB69C2
:1019DC00DB431F4913408B603B685B6803F40013C7
:1019EC00002B06D01A4BDA681949BB691343CB603C
:1019FC0006E0174BDA68BB69DB4315491340CB6033
:101A0C007B6A01337B623B681A687B6A22FA03F3B8
:101A1C00002B7FF4AFAE00BF00BF2C37BD4680BC9F
:101A2C00704700BF0000321000003110000022107F
:101A3C0000002110000012100000111000100240D4
:101A4C000000014000080140000C01400010014062
:101A5C000004014080B485B000AF78600B467B80F9
:101A6C007B689A687B881340002B02D00123FB73A0
:101A7C0001E00023FB73FB7B18461437BD4680BC8A
:101A8C00704780B483B000AF78600B467B80134600
:101A9C007B707B78002B03D07A887B681A6103E01B
:101AAC007B881A047B681A6100BF0C37BD4680BC6A
:101ABC00704780B485B000AF78600B467B807B6844
:101ACC00DB68FB607A88FB6813401A04FB68D94317
:101ADC007B880B401A437B681A6100BF1437BD46E4
:101AEC0080BC704780B586B000AF78607B68002BF7
:101AFC0001D101236CE27B681B6803F00103002B0E
:101B0C0000F08780924B5B6803F00C03042B0CD025
:101B1C008F4B5B6803F00C03082B12D18C4B5B686A
:101B2C0003F48033B3F5803F0BD1894B1B6803F46E
:101B3C000033002B6CD07B685B68002B68D10123D1
:101B4C0046E27B685B68B3F5803F06D1804B1B682F
:101B5C007F4A43F4803313602EE07B685B68002B74
:101B6C000CD17B4B1B687A4A23F480331360784B7F
:101B7C001B68774A23F4802313601DE07B685B6845
:101B8C00B3F5A02F0CD1724B1B68714A43F4802320
:101B9C0013606F4B1B686E4A43F4803313600BE089
:101BAC006B4B1B686A4A23F480331360684B1B68C9
:101BBC00674A23F4802313607B685B68002B13D087
:101BCC00FFF7B6FC386108E0FFF7B2FC02463B6950
:101BDC00D31A642B01D90323FAE15D4B1B6803F480
:101BEC000033002BF0D014E0FFF7A2FC386108E0C2
:101BFC00FFF79EFC02463B69D31A642B01D90323E1
:101C0C00E6E1534B1B6803F40033002BF0D100E0EA
:101C1C0000BF7B681B6803F00203002B63D04C4BA6
:101C2C005B6803F00C03002B0BD0494B5B6803F093
:101C3C000C03082B1CD1464B5B6803F48033002B40
:101C4C0016D1434B1B6803F00203002B05D07B68B5
:101C5C001B69012B01D00123BAE13D4B1B6823F01A
:101C6C00F8027B685B69DB00394913430B603AE08F
:101C7C007B681B69002B20D0364B01221A60FFF7C2
:101C8C0057FC386108E0FFF753FC02463B69D31A56
:101C9C00022B01D903239BE12D4B1B6803F002039C
:101CAC00002BF0D02A4B1B6823F0F8027B685B6991
:101CBC00DB00274913430B6015E0264B00221A600A
:101CCC00FFF736FC386108E0FFF732FC02463B694F
:101CDC00D31A022B01D903237AE11D4B1B6803F0A5
:101CEC000203002BF0D17B681B6803F00803002B68
:101CFC003AD07B689B69002B19D0174B01221A60D4
:101D0C00FFF716FC386108E0FFF712FC02463B694E
:101D1C00D31A022B01D903235AE10D4B5B6A03F052
:101D2C000203002BF0D0012000F0A6FA1CE00A4BB5
:101D3C0000221A60FFF7FCFB38610FE0FFF7F8FB9D
:101D4C0002463B69D31A022B08D9032340E100BF9A
:101D5C000010024000004242800442429E4B5B6AEB
:101D6C0003F00203002BE9D17B681B6803F004032A
:101D7C00002B00F0A6800023FB75974BDB6903F06A
:101D8C008053002B0DD1944BDB69934A43F0805365
:101D9C00D361914BDB6903F08053BB60BB680123BB
:101DAC00FB758E4B1B6803F48073002B18D18B4B87
:101DBC001B688A4A43F480731360FFF7B9FB3861E0
:101DCC0008E0FFF7B5FB02463B69D31A642B01D937
:101DDC000323FDE0814B1B6803F48073002BF0D0D0
:101DEC007B68DB68012B06D17B4B1B6A7A4A43F07C
:101DFC00010313622DE07B68DB68002B0CD1764B62
:101E0C001B6A754A23F001031362734B1B6A724AF7
:101E1C0023F0040313621CE07B68DB68052B0CD1F8
:101E2C006D4B1B6A6C4A43F0040313626A4B1B6ACA
:101E3C00694A43F0010313620BE0674B1B6A664A65
:101E4C0023F001031362644B1B6A634A23F00403FF
:101E5C0013627B68DB68002B15D0FFF769FB3861D8
:101E6C000AE0FFF765FB02463B69D31A41F2883260
:101E7C00934201D90323ABE0574B1B6A03F00203D7
:101E8C00002BEED014E0FFF753FB38610AE0FFF7AC
:101E9C004FFB02463B69D31A41F28832934201D977
:101EAC00032395E04C4B1B6A03F00203002BEED18D
:101EBC00FB7D012B05D1484BDB69474A23F080534E
:101ECC00D3617B68DB69002B00F08180424B5B683F
:101EDC0003F00C03082B61D07B68DB69022B46D125
:101EEC003F4B00221A60FFF723FB386108E0FFF735
:101EFC001FFB02463B69D31A022B01D9032367E06F
:101F0C00354B1B6803F00073002BF0D17B681B6A08
:101F1C00B3F5803F08D1304B5B6823F400327B680B
:101F2C009B682D4913434B602B4B5B6823F4741255
:101F3C007B68196A7B685B6A0B43274913434B60C8
:101F4C00274B01221A60FFF7F3FA386108E0FFF71C
:101F5C00EFFA02463B69D31A022B01D9032337E06F
:101F6C001D4B1B6803F00073002BF0D02FE01C4BB3
:101F7C0000221A60FFF7DCFA386108E0FFF7D8FAA4
:101F8C0002463B69D31A022B01D9032320E0124BE2
:101F9C001B6803F00073002BF0D118E07B68DB6941
:101FAC00012B01D1012313E00B4B5B68FB60FB6839
:101FBC0003F480327B681B6A9A4206D1FB6803F4F7
:101FCC0070127B685B6A9A4201D0012300E0002307
:101FDC0018461837BD4680BD001002400070004006
:101FEC006000424280B584B000AF786039607B6895
:101FFC00002B01D10123D0E06A4B1B6803F00703CF
:10200C003A689A4210D9674B1B6823F0070265495E
:10201C003B6813430B60634B1B6803F007033A6880
:10202C009A4201D00123B8E07B681B6803F00203DD
:10203C00002B20D07B681B6803F00403002B05D019
:10204C00594B5B68584A43F4E06353607B681B68E8
:10205C0003F00803002B05D0534B5B68524A43F442
:10206C0060535360504B5B6823F0F0027B689B68B5
:10207C004D4913434B607B681B6803F00103002B35
:10208C0040D07B685B68012B07D1474B1B6803F47E
:10209C000033002B15D101237FE07B685B68022B9A
:1020AC0007D1414B1B6803F00073002B09D10123AE
:1020BC0073E03D4B1B6803F00203002B01D101239D
:1020CC006BE0394B5B6823F003027B685B68364935
:1020DC0013434B60FFF72CFAF8600AE0FFF728FA7D
:1020EC000246FB68D31A41F28832934201D903238A
:1020FC0053E02D4B5B6803F00C027B685B689B0024
:10210C009A42EBD1274B1B6803F007033A689A42BB
:10211C0010D2244B1B6823F0070222493B6813435F
:10212C000B60204B1B6803F007033A689A4201D0FE
:10213C00012332E07B681B6803F00403002B08D0FA
:10214C00194B5B6823F4E0627B68DB681649134328
:10215C004B607B681B6803F00803002B09D0124B03
:10216C005B6823F460527B681B69DB000E491343E8
:10217C004B6000F021F802460B4B5B681B0903F027
:10218C000F030A49CB5C22FA03F3094A1360094B8B
:10219C001B681846FFF78AF9002318461037BD460E
:1021AC0080BD00BF0020024000100240082B000838
:1021BC00380000203C00002090B48AB000AF2A4BBD
:1021CC003C1D0FCB84E80F0040F201233B80002321
:1021DC00FB610023BB6100237B6200237B61002336
:1021EC003B62224B5B68FB61FB6903F00C03042B25
:1021FC0002D0082B03D02DE01D4B3B622DE0FB6978
:10220C009B0C03F00F0307F12802134413F8243C32
:10221C007B61FB6903F48033002B13D0134B5B6899
:10222C005B0C03F0010307F12802134413F8283C5C
:10223C00BB617B690E4A02FB03F2BB69B2FBF3F391
:10224C007B6204E07B690B4A02FB03F37B627B6AD3
:10225C003B6202E0064B3B6200BF3B6A18462837E4
:10226C00BD4690BC704700BFF82A00080010024021
:10227C0000127A0000093D0080B485B000AF786090
:10228C000A4B1B680A4AA2FB03235B0A7A6802FB0F
:10229C0003F3FB6000BFFB685A1EFA60002BF9D1F8
:1022AC0000BF00BF1437BD4680BC7047380000200B
:1022BC00D34D621080B582B000AF78607B68002B84
:1022CC0001D1012341E07B6893F83D30DBB2002B58
:1022DC0006D17B68002283F83C207868FFF74EF823
:1022EC007B68022283F83D207B681A687B68043384
:1022FC001946104600F06AFA7B68012283F84620E2
:10230C007B68012283F83E207B68012283F83F2002
:10231C007B68012283F840207B68012283F84120EE
:10232C007B68012283F842207B68012283F84320DA
:10233C007B68012283F844207B68012283F84520C6
:10234C007B68012283F83D20002318460837BD46E0
:10235C0080BD000080B485B000AF78607B6893F8D6
:10236C003D30DBB2012B01D0012335E07B6802222A
:10237C0083F83D207B681B68DA687B681B6842F039
:10238C000102DA607B681B68164A934209D07B68AD
:10239C001B68B3F1804F04D07B681B68124A9342D0
:1023AC0011D17B681B689B6803F00703FB60FB681B
:1023BC00062B10D07B681B681A687B681B6842F080
:1023CC0001021A6007E07B681B681A687B681B684F
:1023DC0042F001021A60002318461437BD4680BC37
:1023EC00704700BF002C01400004004080B582B053
:1023FC0000AF78607B681B681B6903F00203022B3B
:10240C0022D17B681B68DB6803F00203022B1BD113
:10241C007B681B686FF002021A617B6801221A77D5
:10242C007B681B689B6903F00303002B03D078685F
:10243C0000F0B1F905E0786800F0A4F9786800F0D4
:10244C00B3F97B6800221A777B681B681B6903F061
:10245C000403042B22D17B681B68DB6803F00403A4
:10246C00042B1BD17B681B686FF004021A617B681C
:10247C0002221A777B681B689B6903F44073002B5C
:10248C0003D0786800F087F905E0786800F07AF9F5
:10249C00786800F089F97B6800221A777B681B68E2
:1024AC001B6903F00803082B22D17B681B68DB68CF
:1024BC0003F00803082B1BD17B681B686FF0080224
:1024CC001A617B6804221A777B681B68DB6903F04E
:1024DC000303002B03D0786800F05DF905E0786801
:1024EC0000F050F9786800F05FF97B6800221A77E9
:1024FC007B681B681B6903F01003102B22D17B68CF
:10250C001B68DB6803F01003102B1BD17B681B6866
:10251C006FF010021A617B6808221A777B681B68BF
:10252C00DB6903F44073002B03D0786800F033F9B7
:10253C0005E0786800F026F9786800F035F97B68DA
:10254C0000221A777B681B681B6903F00103012BBF
:10255C000ED17B681B68DB6803F00103012B07D1EC
:10256C007B681B686FF001021A617868FEF728FE21
:10257C007B681B681B6903F08003802B0ED17B6882
:10258C001B68DB6803F08003802B07D17B681B681A
:10259C006FF080021A61786800F067FA7B681B683C
:1025AC001B6903F04003402B0ED17B681B68DB6872
:1025BC0003F04003402B07D17B681B686FF040028F
:1025CC001A61786800F0F9F87B681B681B6903F0E6
:1025DC002003202B0ED17B681B68DB6803F02003E3
:1025EC00202B07D17B681B686FF020021A6178687A
:1025FC0000F032FA00BF0837BD4680BD80B584B00C
:10260C0000AF786039607B6893F83C30012B01D1C6
:10261C000223B3E07B68012283F83C207B68022212
:10262C0083F83D207B681B689B68FB60FB6823F08C
:10263C007703FB60FB6823F47F43FB607B681B68BC
:10264C00FA689A603B681B68B3F5005F3ED0B3F53F
:10265C00005F00F28780B3F5805F00F08580B3F5F2
:10266C00805F7FD8702B1AD0702B7BD8602B50D00A
:10267C00602B77D8502B3CD0502B73D8402B58D094
:10268C00402B6FD8302B64D0302B6BD8202B60D0E4
:10269C00202B67D8002B5CD0102B5AD062E07B68C3
:1026AC0018683B6899683B685A683B68DB6800F0BF
:1026BC005CF97B681B689B68FB60FB6843F07703E5
:1026CC00FB607B681B68FA689A604EE07B68186850
:1026DC003B6899683B685A683B68DB6800F045F9D1
:1026EC007B681B689A687B681B6842F480429A601E
:1026FC003BE07B6818683B6859683B68DB681A46A6
:10270C0000F0BCF87B681B685021184600F013F9E8
:10271C002BE07B6818683B6859683B68DB681A4695
:10272C0000F0DAF87B681B686021184600F003F9AA
:10273C001BE07B6818683B6859683B68DB681A4685
:10274C0000F09CF87B681B684021184600F0F3F8F9
:10275C000BE07B681A683B681B681946104600F052
:10276C00EAF802E000BF00E000BF7B68012283F8BA
:10277C003D207B68002283F83C200023184610374C
:10278C00BD4680BD80B483B000AF786000BF0C370D
:10279C00BD4680BC704780B483B000AF786000BF8A
:1027AC000C37BD4680BC704780B483B000AF7860F6
:1027BC0000BF0C37BD4680BC704780B483B000AFFF
:1027CC00786000BF0C37BD4680BC704780B485B0C4
:1027DC0000AF786039607B681B68FB607B68254ABA
:1027EC00934207D07B68B3F1804F03D07B68224AB9
:1027FC00934208D1FB6823F07003FB603B685B6875
:10280C00FA681343FB607B681A4A934207D07B68D3
:10281C00B3F1804F03D07B68174A934208D1FB6811
:10282C0023F44073FB603B68DB68FA681343FB607E
:10283C00FB6823F080023B685B691343FB607B6899
:10284C00FA681A603B689A687B68DA623B681A68B7
:10285C007B689A627B68074A934203D13B681A698A
:10286C007B681A637B6801225A6100BF1437BD462E
:10287C0080BC7047002C01400004004080B487B03D
:10288C0000AFF860B9607A60FB681B6A7B61FB681B
:10289C001B6A23F00102FB681A62FB689B693B61AF
:1028AC003B6923F0F0033B617B681B013A691343DE
:1028BC003B617B6923F00A037B617A69BB68134334
:1028CC007B61FB683A699A61FB687A691A6200BF9E
:1028DC001C37BD4680BC704780B487B000AFF86031
:1028EC00B9607A60FB681B6A23F01002FB681A62FD
:1028FC00FB689B697B61FB681B6A3B617B6923F40A
:10290C0070437B617B681B037A6913437B613B6972
:10291C0023F0A0033B61BB681B013A6913433B6185
:10292C00FB687A699A61FB683A691A6200BF1C37C6
:10293C00BD4680BC704780B485B000AF786039600C
:10294C007B689B68FB60FB6823F07003FB603A6854
:10295C00FB68134343F00703FB607B68FA689A60DB
:10296C0000BF1437BD4680BC704780B487B000AF41
:10297C00F860B9607A603B60FB689B687B617B693F
:10298C0023F47F437B613B681A027B681A43BB6864
:10299C0013437A6913437B61FB687A699A6000BFC1
:1029AC001C37BD4680BC704780B485B000AF7860E2
:1029BC0039607B6893F83C30012B01D1022341E054
:1029CC007B68012283F83C207B68022283F83D203F
:1029DC007B681B685B68FB607B681B689B68BB60E3
:1029EC00FB6823F07003FB603B681B68FA681343B9
:1029FC00FB607B681B68FA685A607B681B68144A2A
:102A0C00934209D07B681B68B3F1804F04D07B687C
:102A1C001B68104A93420CD1BB6823F08003BB6047
:102A2C003B685B68BA681343BB607B681B68BA6819
:102A3C009A607B68012283F83D207B68002283F832
:102A4C003C20002318461437BD4680BC704700BF9D
:102A5C00002C01400004004080B483B000AF7860CB
:102A6C0000BF0C37BD4680BC704780B483B000AF4C
:102A7C00786000BF0C37BD4680BC704770B500262F
:102A8C000C4D0D4C641BA410A64209D100F022F889
:102A9C0000260A4D0A4C641BA410A64205D170BD39
:102AAC0055F8043B98470136EEE755F8043B984738
:102ABC000136F2E7182B0008182B0008182B000819
:102ACC001C2B000803460244934200D1704703F8C4
:102ADC00011BF9E7F8B500BFF8BC08BC9E4670476F
:0C2AEC00F8B500BFF8BC08BC9E4670475F
:102AF80002030405060708090A0B0C0D0E0F101037
:102B08000000000000000000010203040607080995
:042B1800310100087F
:042B1C000D0100089F
:102B200001000000010000000100000001000000A1
:102B30000100000001000000010000000100000091
:102B40000100000001000000010000000100000081
:102B50002C0100002C0100000024F40010000000F3
:042B60000100000070
:04000005080014419A
:00000001FF
